:020000040800F2
:1000000000100020110000087100000871000008B5
:1000100080B584B000AF114BFB60114BBB6007E0B3
:10002000FA68131DFB60BB68191DB96012681A607D
:10003000BB680C4A9342F3D30B4B7B6004E07B68B4
:100040001A1D7A6000221A607B68084A9342F6D330
:1000500000F014F800BF1037BD4680BDF80000085E
:100060000000002004000020040000200E000020FA
:1000700080B500AFFFF7CCFF00BF80BD80B483B078
:1000800000AF1A4B1B68194A43F004031360184B66
:100090001B68174A23F470031360154B1B68144A3E
:1000A00043F400131360134B1A68138843F400538E
:1000B000138000237B6002E07B6801337B607B68F8
:1000C00041F287329342F7DD0A4B1A68138823F412
:1000D0000053138000233B6002E03B6801333B6028
:1000E0003B6841F287329342F7DDDCE718100240AB
:0800F00004080140000000209B
:0400F8000C080140AF
:0400000508000000EF
:00000001FF
