:100000000C0400201D000000110000001100000081
:1000100080B500AF00F002F800BF80BD80B582B0AF
:1000200000AF094B7B6004E07B681A1D7A600022F8
:100030001A607B68054A9342F6D300F009F800BFC6
:100040000837BD4680BD00BF000000200C00002026
:1000500080B483B000AF124B20221A600023FB80D3
:1000600004E0FB889BB201339BB2FB80FB889BB210
:10007000C72BF6D90B4B1B680A4A43F008031360E1
:10008000094B1B68084A43F0080313600023FB80F8
:1000900004E0FB889BB201339BB2FB80FB88F8E74E
:0C00A00008E10F40005402401C550240D3
:00000001FF
